:100000000C9452000C9464000C9464000C946400F2
:100010000C9464000C9464000C9464000C946400D0
:100020000C9464000C9464000C9464000C946400C0
:100030000C9464000C9464000C9464000C946400B0
:100040000C94D8000C9464000C9464000C9464002C
:100050000C9464000C9464000C9464000C94640090
:100060000C9464000C946400010204081020408089
:1000700001020408102001020408102004040404F2
:100080000404040402020202020203030303030342
:1000900000000000250028002B00000000002400C4
:1000A00027002A0011241FBECFEFD8E0DEBFCDBF4E
:1000B00021E0A0E0B1E001C01D92AB30B207E1F752
:1000C0000E94EE010C94FB010C940000CF92DF9291
:1000D000EF92FF920F931F9388E190E000E010E011
:1000E00020E830E068017901C422D522E622F72217
:1000F000409ACD28CE28CF28D1F000000000000083
:1001000000000000000000000000000000000000EF
:1001100000000000000000000000000000000000DF
:100120000000000000000000000040980DC000002A
:1001300000000000000000000000000000000000BF
:100140004098000000000000369527951795079508
:10015000019709F0C7CF1F910F91FF90EF90DF90AB
:10016000CF9008958EE090E090930101809300017C
:1001700061E00E94B201409884E190E00C946D012E
:10018000CF93DF93F894CAE0D0E040E05FEF6FEFE9
:1001900070E080E091E00E9466002197B1F77894CA
:1001A00068EE73E080E090E0DF91CF910C9447011E
:1001B0001F920F920FB60F9211242F933F938F939C
:1001C0009F93AF93BF938091030190910401A091FD
:1001D0000501B09106013091020123E0230F2D3774
:1001E00020F40196A11DB11D05C026E8230F02963B
:1001F000A11DB11D2093020180930301909304017E
:10020000A0930501B0930601809107019091080128
:10021000A0910901B0910A010196A11DB11D809321
:10022000070190930801A0930901B0930A01BF91BF
:10023000AF919F918F913F912F910F900FBE0F9093
:100240001F9018953FB7F89480910701909108018D
:10025000A0910901B0910A0126B5A89B05C02F3FC6
:1002600019F00196A11DB11D3FBFBA2FA92F982FDC
:100270008827820F911DA11DB11DBC01CD0142E057
:10028000660F771F881F991F4A95D1F70895CF925F
:10029000DF92EF92FF92CF93DF936B017C010E947C
:1002A0002201EB01C114D104E104F10479F00E94B0
:1002B00022016C1B7D0B683E7340A0F381E0C81ADD
:1002C000D108E108F108C851DC4FECCFDF91CF91A4
:1002D000FF90EF90DF90CF900895019739F0880F4D
:1002E000991F880F991F02970197F1F70895789445
:1002F00084B5826084BD84B5816084BD85B582602B
:1003000085BD85B5816085BDEEE6F0E080818160C8
:100310008083E1E8F0E010828081826080838081C8
:1003200081608083E0E8F0E0808181608083E1EBA0
:10033000F0E0808184608083E0EBF0E08081816088
:100340008083EAE7F0E0808184608083808182603E
:100350008083808181608083808180688083109227
:10036000C1000895CF93DF9390E0FC01E859FF4F5F
:100370002491FC01E458FF4F8491882361F190E0BF
:10038000880F991FFC01E656FF4FC591D491FC01DF
:10039000E057FF4FA591B491611109C09FB7F89440
:1003A0008881209582238883EC912E230BC06230B4
:1003B00061F49FB7F8943881822F809583238883D6
:1003C000EC912E2B2C939FBF06C08FB7F894E88139
:1003D0002E2B28838FBFDF91CF9108950E94770144
:1003E0000E94B200C0E0D0E00E94C0002097E1F37C
:1003F0000E940000F9CFF8940C94FE01F894FFCF0E
:00000001FF
